{
  "_format": "hh3-artifact-1",
  "contractName": "SimpleAccountECDSAMock",
  "sourceName": "test/mocks/SimpleAccountECDSAMock.sol",
  "abi": [
    {
      "inputs": [
        {
          "internalType": "address",
          "name": "_owner",
          "type": "address"
        },
        {
          "internalType": "address",
          "name": "_entryPoint",
          "type": "address"
        }
      ],
      "stateMutability": "nonpayable",
      "type": "constructor"
    },
    {
      "inputs": [],
      "name": "ECDSAInvalidSignature",
      "type": "error"
    },
    {
      "inputs": [
        {
          "internalType": "uint256",
          "name": "length",
          "type": "uint256"
        }
      ],
      "name": "ECDSAInvalidSignatureLength",
      "type": "error"
    },
    {
      "inputs": [
        {
          "internalType": "bytes32",
          "name": "s",
          "type": "bytes32"
        }
      ],
      "name": "ECDSAInvalidSignatureS",
      "type": "error"
    },
    {
      "inputs": [],
      "name": "entryPoint",
      "outputs": [
        {
          "internalType": "address",
          "name": "",
          "type": "address"
        }
      ],
      "stateMutability": "view",
      "type": "function"
    },
    {
      "inputs": [
        {
          "internalType": "address",
          "name": "target",
          "type": "address"
        },
        {
          "internalType": "uint256",
          "name": "value",
          "type": "uint256"
        },
        {
          "internalType": "bytes",
          "name": "data",
          "type": "bytes"
        }
      ],
      "name": "execute",
      "outputs": [],
      "stateMutability": "nonpayable",
      "type": "function"
    },
    {
      "inputs": [],
      "name": "getNonce",
      "outputs": [
        {
          "internalType": "uint256",
          "name": "",
          "type": "uint256"
        }
      ],
      "stateMutability": "view",
      "type": "function"
    },
    {
      "inputs": [],
      "name": "owner",
      "outputs": [
        {
          "internalType": "address",
          "name": "",
          "type": "address"
        }
      ],
      "stateMutability": "view",
      "type": "function"
    },
    {
      "inputs": [
        {
          "components": [
            {
              "internalType": "address",
              "name": "sender",
              "type": "address"
            },
            {
              "internalType": "uint256",
              "name": "nonce",
              "type": "uint256"
            },
            {
              "internalType": "bytes",
              "name": "initCode",
              "type": "bytes"
            },
            {
              "internalType": "bytes",
              "name": "callData",
              "type": "bytes"
            },
            {
              "internalType": "bytes32",
              "name": "accountGasLimits",
              "type": "bytes32"
            },
            {
              "internalType": "uint256",
              "name": "preVerificationGas",
              "type": "uint256"
            },
            {
              "internalType": "bytes32",
              "name": "gasFees",
              "type": "bytes32"
            },
            {
              "internalType": "bytes",
              "name": "paymasterAndData",
              "type": "bytes"
            },
            {
              "internalType": "bytes",
              "name": "signature",
              "type": "bytes"
            }
          ],
          "internalType": "struct PackedUserOperation",
          "name": "userOp",
          "type": "tuple"
        },
        {
          "internalType": "bytes32",
          "name": "userOpHash",
          "type": "bytes32"
        },
        {
          "internalType": "uint256",
          "name": "",
          "type": "uint256"
        }
      ],
      "name": "validateUserOp",
      "outputs": [
        {
          "internalType": "uint256",
          "name": "validationData",
          "type": "uint256"
        }
      ],
      "stateMutability": "nonpayable",
      "type": "function"
    },
    {
      "stateMutability": "payable",
      "type": "receive"
    }
  ],
  "bytecode": "0x60a03461009957601f6108ef38819003918201601f19168301916001600160401b0383118484101761009d57808492604094855283398101031261009957610052602061004b836100b1565b92016100b1565b6080525f80546001600160a01b0319166001600160a01b039290921691909117905560405161082990816100c68239608051818181609d0152818161016201526104a70152f35b5f80fd5b634e487b7160e01b5f52604160045260245ffd5b51906001600160a01b03821682036100995756fe6080604052600436101561001a575b3615610018575f80fd5b005b5f3560e01c806319822f7c146100695780638da5cb5b14610064578063b0d691fe1461005f578063b61d27f61461005a5763d087d2880361000e57610204565b610191565b61014d565b610126565b346101225760603660031901126101225760043567ffffffffffffffff8111610122576101206003198236030112610122577f00000000000000000000000000000000000000000000000000000000000000006001600160a01b031633036100f2576100de6100ee91602435906004016103a3565b6040519081529081906020820190565b0390f35b62461bcd60e51b6080526020608452600f60a4526e1bdb9b1e48115b9d1c9e541bda5b9d608a1b60c45260646080fd5b5f80fd5b34610122575f366003190112610122575f546040516001600160a01b039091168152602090f35b34610122575f366003190112610122576040517f00000000000000000000000000000000000000000000000000000000000000006001600160a01b03168152602090f35b34610122576060366003190112610122576004356001600160a01b0381168103610122576024356044359167ffffffffffffffff831161012257366023840112156101225782600401359167ffffffffffffffff83116101225736602484860101116101225760246100189401916104a2565b34610122575f366003190112610122576020600154604051908152f35b634e487b7160e01b5f52604160045260245ffd5b90601f8019910116810190811067ffffffffffffffff82111761025757604052565b610221565b67ffffffffffffffff811161025757601f01601f191660200190565b60405190610287604083610235565b600682526527bbb732b91d60d11b6020830152565b903590601e1981360301821215610122570180359067ffffffffffffffff82116101225760200191813603831361012257565b9291926102db8261025c565b916102e96040519384610235565b829481845281830111610122578281602093845f960137010152565b60405190610314604083610235565b600a8252692932b1b7bb32b932b21d60b11b6020830152565b6040519061033c604083610235565b601b82527f5369676e61747572652076616c69646174696f6e204641494c454400000000006020830152565b60405190610377604083610235565b601e82527f5369676e61747572652076616c69646174696f6e2053554343454544454400006020830152565b9061045561046e9161040f60406103e681516103bf8382610235565b60158152741d985b1a59185d19555cd95c93dc0818d85b1b1959605a1b60208201526105a5565b6103f281519182610235565b600b81526a3ab9b2b927b82430b9b41d60a91b60208201526105a5565b610418816105e8565b5f5461044f90610448906001600160a01b03169561043d87610438610278565b610611565b61010081019061029c565b36916102cf565b9061065f565b9161046283610438610305565b6001600160a01b031690565b6001600160a01b03909116036104925761048e610489610368565b6105a5565b5f90565b61049d61048961032d565b600190565b9092337f00000000000000000000000000000000000000000000000000000000000000006001600160a01b0316148015610578575b15610533575f938493826040519384928337810185815203925af13d1561052b573d906105038261025c565b916105116040519384610235565b82523d5f602084013e5b156105235750565b602081519101fd5b60609061051b565b60405162461bcd60e51b815260206004820152601760248201527f6f6e6c7920456e747279506f696e74206f722073656c660000000000000000006044820152606490fd5b503033146104d7565b805180835260209291819084018484015e5f828201840152601f01601f1916010190565b6105d36105e16105e69260405192839163104c13eb60e21b6020840152602060248401526044830190610581565b03601f198101835282610235565b610678565b565b6105e690604051906327b7cf8560e01b60208301526024820152602481526105e1604482610235565b6105e1610640916105e69360405193849263319af33360e01b6020850152604060248501526064840190610581565b6001600160a01b0391909116604483015203601f198101835282610235565b6106759161066c91610692565b909291926106ea565b90565b5f80916020815191016a636f6e736f6c652e6c6f675afa50565b81519190604183036106c2576106bb9250602082015190606060408401519301515f1a90610766565b9192909190565b50505f9160029190565b600411156106d657565b634e487b7160e01b5f52602160045260245ffd5b6106f3816106cc565b806106fc575050565b610705816106cc565b6001810361071c5763f645eedf60e01b5f5260045ffd5b610725816106cc565b60028103610740575063fce698f760e01b5f5260045260245ffd5b8061074c6003926106cc565b146107545750565b6335e2f38360e21b5f5260045260245ffd5b91907f7fffffffffffffffffffffffffffffff5d576e7357a4501ddfe92f46681b20a084116107e8579160209360809260ff5f9560405194855216868401526040830152606082015282805260015afa156107dd575f516001600160a01b038116156107d357905f905f90565b505f906001905f90565b6040513d5f823e3d90fd5b5050505f916003919056fea26469706673582212205d217edecd3c5d39ce3fd8aa7c1a942f7019adfef0454527298a8b3449e7f22964736f6c634300081c0033",
  "linkReferences": {},
  "deployedLinkReferences": {},
  "immutableReferences": {
    "62245": [
      {
        "length": 32,
        "start": 157
      },
      {
        "length": 32,
        "start": 354
      },
      {
        "length": 32,
        "start": 1191
      }
    ]
  },
  "inputSourceName": "project/test/mocks/SimpleAccountECDSAMock.sol",
  "buildInfoId": "solc-0_8_28-7e97130e25c53ef123147087098b5dc5d4cc77b1"
}