{
  "_format": "hh3-artifact-1",
  "contractName": "PythMock",
  "sourceName": "test/mocks/PythMock.sol",
  "abi": [
    {
      "anonymous": false,
      "inputs": [
        {
          "indexed": true,
          "internalType": "bytes32",
          "name": "id",
          "type": "bytes32"
        },
        {
          "indexed": false,
          "internalType": "uint64",
          "name": "publishTime",
          "type": "uint64"
        },
        {
          "indexed": false,
          "internalType": "int64",
          "name": "price",
          "type": "int64"
        },
        {
          "indexed": false,
          "internalType": "uint64",
          "name": "conf",
          "type": "uint64"
        }
      ],
      "name": "PriceFeedUpdate",
      "type": "event"
    },
    {
      "anonymous": false,
      "inputs": [
        {
          "indexed": true,
          "internalType": "bytes32",
          "name": "id",
          "type": "bytes32"
        },
        {
          "indexed": false,
          "internalType": "uint64",
          "name": "startTime",
          "type": "uint64"
        },
        {
          "indexed": false,
          "internalType": "uint64",
          "name": "endTime",
          "type": "uint64"
        },
        {
          "indexed": false,
          "internalType": "int64",
          "name": "twapPrice",
          "type": "int64"
        },
        {
          "indexed": false,
          "internalType": "uint64",
          "name": "twapConf",
          "type": "uint64"
        },
        {
          "indexed": false,
          "internalType": "uint32",
          "name": "downSlotsRatio",
          "type": "uint32"
        }
      ],
      "name": "TwapPriceFeedUpdate",
      "type": "event"
    },
    {
      "inputs": [
        {
          "internalType": "bytes32",
          "name": "id",
          "type": "bytes32"
        }
      ],
      "name": "getEmaPrice",
      "outputs": [
        {
          "components": [
            {
              "internalType": "int64",
              "name": "price",
              "type": "int64"
            },
            {
              "internalType": "uint64",
              "name": "conf",
              "type": "uint64"
            },
            {
              "internalType": "int32",
              "name": "expo",
              "type": "int32"
            },
            {
              "internalType": "uint256",
              "name": "publishTime",
              "type": "uint256"
            }
          ],
          "internalType": "struct PythStructs.Price",
          "name": "price",
          "type": "tuple"
        }
      ],
      "stateMutability": "view",
      "type": "function"
    },
    {
      "inputs": [
        {
          "internalType": "bytes32",
          "name": "id",
          "type": "bytes32"
        },
        {
          "internalType": "uint256",
          "name": "",
          "type": "uint256"
        }
      ],
      "name": "getEmaPriceNoOlderThan",
      "outputs": [
        {
          "components": [
            {
              "internalType": "int64",
              "name": "price",
              "type": "int64"
            },
            {
              "internalType": "uint64",
              "name": "conf",
              "type": "uint64"
            },
            {
              "internalType": "int32",
              "name": "expo",
              "type": "int32"
            },
            {
              "internalType": "uint256",
              "name": "publishTime",
              "type": "uint256"
            }
          ],
          "internalType": "struct PythStructs.Price",
          "name": "price",
          "type": "tuple"
        }
      ],
      "stateMutability": "view",
      "type": "function"
    },
    {
      "inputs": [
        {
          "internalType": "bytes32",
          "name": "id",
          "type": "bytes32"
        }
      ],
      "name": "getEmaPriceUnsafe",
      "outputs": [
        {
          "components": [
            {
              "internalType": "int64",
              "name": "price",
              "type": "int64"
            },
            {
              "internalType": "uint64",
              "name": "conf",
              "type": "uint64"
            },
            {
              "internalType": "int32",
              "name": "expo",
              "type": "int32"
            },
            {
              "internalType": "uint256",
              "name": "publishTime",
              "type": "uint256"
            }
          ],
          "internalType": "struct PythStructs.Price",
          "name": "price",
          "type": "tuple"
        }
      ],
      "stateMutability": "view",
      "type": "function"
    },
    {
      "inputs": [
        {
          "internalType": "bytes32",
          "name": "id",
          "type": "bytes32"
        },
        {
          "internalType": "uint256",
          "name": "",
          "type": "uint256"
        }
      ],
      "name": "getPriceNoOlderThan",
      "outputs": [
        {
          "components": [
            {
              "internalType": "int64",
              "name": "price",
              "type": "int64"
            },
            {
              "internalType": "uint64",
              "name": "conf",
              "type": "uint64"
            },
            {
              "internalType": "int32",
              "name": "expo",
              "type": "int32"
            },
            {
              "internalType": "uint256",
              "name": "publishTime",
              "type": "uint256"
            }
          ],
          "internalType": "struct PythStructs.Price",
          "name": "price",
          "type": "tuple"
        }
      ],
      "stateMutability": "view",
      "type": "function"
    },
    {
      "inputs": [
        {
          "internalType": "bytes32",
          "name": "id",
          "type": "bytes32"
        }
      ],
      "name": "getPriceUnsafe",
      "outputs": [
        {
          "components": [
            {
              "internalType": "int64",
              "name": "price",
              "type": "int64"
            },
            {
              "internalType": "uint64",
              "name": "conf",
              "type": "uint64"
            },
            {
              "internalType": "int32",
              "name": "expo",
              "type": "int32"
            },
            {
              "internalType": "uint256",
              "name": "publishTime",
              "type": "uint256"
            }
          ],
          "internalType": "struct PythStructs.Price",
          "name": "price",
          "type": "tuple"
        }
      ],
      "stateMutability": "view",
      "type": "function"
    },
    {
      "inputs": [
        {
          "internalType": "bytes[]",
          "name": "",
          "type": "bytes[]"
        }
      ],
      "name": "getTwapUpdateFee",
      "outputs": [
        {
          "internalType": "uint256",
          "name": "feeAmount",
          "type": "uint256"
        }
      ],
      "stateMutability": "pure",
      "type": "function"
    },
    {
      "inputs": [
        {
          "internalType": "bytes[]",
          "name": "",
          "type": "bytes[]"
        }
      ],
      "name": "getUpdateFee",
      "outputs": [
        {
          "internalType": "uint256",
          "name": "",
          "type": "uint256"
        }
      ],
      "stateMutability": "pure",
      "type": "function"
    },
    {
      "inputs": [],
      "name": "getValidTimePeriod",
      "outputs": [
        {
          "internalType": "uint256",
          "name": "",
          "type": "uint256"
        }
      ],
      "stateMutability": "pure",
      "type": "function"
    },
    {
      "inputs": [
        {
          "internalType": "bytes[]",
          "name": "",
          "type": "bytes[]"
        },
        {
          "internalType": "bytes32[]",
          "name": "",
          "type": "bytes32[]"
        },
        {
          "internalType": "uint64",
          "name": "",
          "type": "uint64"
        },
        {
          "internalType": "uint64",
          "name": "",
          "type": "uint64"
        }
      ],
      "name": "parsePriceFeedUpdates",
      "outputs": [
        {
          "components": [
            {
              "internalType": "bytes32",
              "name": "id",
              "type": "bytes32"
            },
            {
              "components": [
                {
                  "internalType": "int64",
                  "name": "price",
                  "type": "int64"
                },
                {
                  "internalType": "uint64",
                  "name": "conf",
                  "type": "uint64"
                },
                {
                  "internalType": "int32",
                  "name": "expo",
                  "type": "int32"
                },
                {
                  "internalType": "uint256",
                  "name": "publishTime",
                  "type": "uint256"
                }
              ],
              "internalType": "struct PythStructs.Price",
              "name": "price",
              "type": "tuple"
            },
            {
              "components": [
                {
                  "internalType": "int64",
                  "name": "price",
                  "type": "int64"
                },
                {
                  "internalType": "uint64",
                  "name": "conf",
                  "type": "uint64"
                },
                {
                  "internalType": "int32",
                  "name": "expo",
                  "type": "int32"
                },
                {
                  "internalType": "uint256",
                  "name": "publishTime",
                  "type": "uint256"
                }
              ],
              "internalType": "struct PythStructs.Price",
              "name": "emaPrice",
              "type": "tuple"
            }
          ],
          "internalType": "struct PythStructs.PriceFeed[]",
          "name": "",
          "type": "tuple[]"
        }
      ],
      "stateMutability": "payable",
      "type": "function"
    },
    {
      "inputs": [
        {
          "internalType": "bytes[]",
          "name": "",
          "type": "bytes[]"
        },
        {
          "internalType": "bytes32[]",
          "name": "",
          "type": "bytes32[]"
        },
        {
          "internalType": "uint64",
          "name": "",
          "type": "uint64"
        },
        {
          "internalType": "uint64",
          "name": "",
          "type": "uint64"
        }
      ],
      "name": "parsePriceFeedUpdatesUnique",
      "outputs": [
        {
          "components": [
            {
              "internalType": "bytes32",
              "name": "id",
              "type": "bytes32"
            },
            {
              "components": [
                {
                  "internalType": "int64",
                  "name": "price",
                  "type": "int64"
                },
                {
                  "internalType": "uint64",
                  "name": "conf",
                  "type": "uint64"
                },
                {
                  "internalType": "int32",
                  "name": "expo",
                  "type": "int32"
                },
                {
                  "internalType": "uint256",
                  "name": "publishTime",
                  "type": "uint256"
                }
              ],
              "internalType": "struct PythStructs.Price",
              "name": "price",
              "type": "tuple"
            },
            {
              "components": [
                {
                  "internalType": "int64",
                  "name": "price",
                  "type": "int64"
                },
                {
                  "internalType": "uint64",
                  "name": "conf",
                  "type": "uint64"
                },
                {
                  "internalType": "int32",
                  "name": "expo",
                  "type": "int32"
                },
                {
                  "internalType": "uint256",
                  "name": "publishTime",
                  "type": "uint256"
                }
              ],
              "internalType": "struct PythStructs.Price",
              "name": "emaPrice",
              "type": "tuple"
            }
          ],
          "internalType": "struct PythStructs.PriceFeed[]",
          "name": "",
          "type": "tuple[]"
        }
      ],
      "stateMutability": "payable",
      "type": "function"
    },
    {
      "inputs": [
        {
          "internalType": "bytes[]",
          "name": "",
          "type": "bytes[]"
        },
        {
          "internalType": "bytes32[]",
          "name": "",
          "type": "bytes32[]"
        },
        {
          "internalType": "uint64",
          "name": "",
          "type": "uint64"
        },
        {
          "internalType": "uint64",
          "name": "",
          "type": "uint64"
        },
        {
          "internalType": "bool",
          "name": "",
          "type": "bool"
        },
        {
          "internalType": "bool",
          "name": "",
          "type": "bool"
        },
        {
          "internalType": "bool",
          "name": "",
          "type": "bool"
        }
      ],
      "name": "parsePriceFeedUpdatesWithConfig",
      "outputs": [
        {
          "components": [
            {
              "internalType": "bytes32",
              "name": "id",
              "type": "bytes32"
            },
            {
              "components": [
                {
                  "internalType": "int64",
                  "name": "price",
                  "type": "int64"
                },
                {
                  "internalType": "uint64",
                  "name": "conf",
                  "type": "uint64"
                },
                {
                  "internalType": "int32",
                  "name": "expo",
                  "type": "int32"
                },
                {
                  "internalType": "uint256",
                  "name": "publishTime",
                  "type": "uint256"
                }
              ],
              "internalType": "struct PythStructs.Price",
              "name": "price",
              "type": "tuple"
            },
            {
              "components": [
                {
                  "internalType": "int64",
                  "name": "price",
                  "type": "int64"
                },
                {
                  "internalType": "uint64",
                  "name": "conf",
                  "type": "uint64"
                },
                {
                  "internalType": "int32",
                  "name": "expo",
                  "type": "int32"
                },
                {
                  "internalType": "uint256",
                  "name": "publishTime",
                  "type": "uint256"
                }
              ],
              "internalType": "struct PythStructs.Price",
              "name": "emaPrice",
              "type": "tuple"
            }
          ],
          "internalType": "struct PythStructs.PriceFeed[]",
          "name": "",
          "type": "tuple[]"
        },
        {
          "internalType": "uint64[]",
          "name": "",
          "type": "uint64[]"
        }
      ],
      "stateMutability": "payable",
      "type": "function"
    },
    {
      "inputs": [
        {
          "internalType": "bytes[]",
          "name": "",
          "type": "bytes[]"
        },
        {
          "internalType": "bytes32[]",
          "name": "",
          "type": "bytes32[]"
        }
      ],
      "name": "parseTwapPriceFeedUpdates",
      "outputs": [
        {
          "components": [
            {
              "internalType": "bytes32",
              "name": "id",
              "type": "bytes32"
            },
            {
              "internalType": "uint64",
              "name": "startTime",
              "type": "uint64"
            },
            {
              "internalType": "uint64",
              "name": "endTime",
              "type": "uint64"
            },
            {
              "components": [
                {
                  "internalType": "int64",
                  "name": "price",
                  "type": "int64"
                },
                {
                  "internalType": "uint64",
                  "name": "conf",
                  "type": "uint64"
                },
                {
                  "internalType": "int32",
                  "name": "expo",
                  "type": "int32"
                },
                {
                  "internalType": "uint256",
                  "name": "publishTime",
                  "type": "uint256"
                }
              ],
              "internalType": "struct PythStructs.Price",
              "name": "twap",
              "type": "tuple"
            },
            {
              "internalType": "uint32",
              "name": "downSlotsRatio",
              "type": "uint32"
            }
          ],
          "internalType": "struct PythStructs.TwapPriceFeed[]",
          "name": "",
          "type": "tuple[]"
        }
      ],
      "stateMutability": "payable",
      "type": "function"
    },
    {
      "inputs": [
        {
          "internalType": "bytes32",
          "name": "id",
          "type": "bytes32"
        },
        {
          "internalType": "int64",
          "name": "price",
          "type": "int64"
        },
        {
          "internalType": "int32",
          "name": "expo",
          "type": "int32"
        }
      ],
      "name": "setPrice",
      "outputs": [],
      "stateMutability": "nonpayable",
      "type": "function"
    },
    {
      "inputs": [
        {
          "internalType": "bytes32",
          "name": "id",
          "type": "bytes32"
        },
        {
          "internalType": "int64",
          "name": "price",
          "type": "int64"
        },
        {
          "internalType": "uint64",
          "name": "conf",
          "type": "uint64"
        },
        {
          "internalType": "int32",
          "name": "expo",
          "type": "int32"
        },
        {
          "internalType": "uint256",
          "name": "publishTime",
          "type": "uint256"
        }
      ],
      "name": "setPrice",
      "outputs": [],
      "stateMutability": "nonpayable",
      "type": "function"
    },
    {
      "inputs": [
        {
          "internalType": "bytes[]",
          "name": "",
          "type": "bytes[]"
        }
      ],
      "name": "updatePriceFeeds",
      "outputs": [],
      "stateMutability": "payable",
      "type": "function"
    },
    {
      "inputs": [
        {
          "internalType": "bytes[]",
          "name": "",
          "type": "bytes[]"
        },
        {
          "internalType": "bytes32[]",
          "name": "",
          "type": "bytes32[]"
        },
        {
          "internalType": "uint64[]",
          "name": "",
          "type": "uint64[]"
        }
      ],
      "name": "updatePriceFeedsIfNecessary",
      "outputs": [],
      "stateMutability": "payable",
      "type": "function"
    }
  ],
  "bytecode": "0x608080604052346015576108b1908161001a8239f35b5f80fdfe60806040526004361015610011575f80fd5b5f3560e01c806330c41c9d1461049d5780633a229d18146103ac5780634716e9c5146103655780635f674e351461036f578063711a2e281461036a5780639474f45b1461036057806396834ad314610360578063a4ae35e01461036a578063accca7f914610365578063b5dcc91114610360578063b9256d28146102f3578063d47eed45146102b7578063e18910a31461029c578063eb942158146101b6578063ef9e5e28146101895763fe02dfd6146100c9575f80fd5b346101855760a0366003190112610185576100e2610546565b6100ea610586565b6064358060030b8091036101855760019161010361074f565b9360070b84526001600160401b03602085019116815260408401918252606084019160843583526004355f525f60205260405f209451916001600160401b0367ffffffffffffffff60401b8754925160401b16925160801b63ffffffff60801b169316906bffffffffffffffffffffffff60a01b161717178355519101555f80f35b5f80fd5b6020366003190112610185576004356001600160401b038111610185576101b4903690600401610556565b005b6040366003190112610185576004356001600160401b038111610185576101e1903690600401610556565b50506024356001600160401b03811161018557610202903690600401610556565b5050602061020f81610782565b5f815260405190828201838352815180915283604084019201935f5b8281106102385784840385f35b9091928261010060019263ffffffff60808a51805184526001600160401b038682015116868501526001600160401b036040820151166040850152610285606082015160608601906105df565b01511660e08201520196019101949291909461022b565b34610185575f366003190112610185576020604051603c8152f35b34610185576020366003190112610185576004356001600160401b038111610185576102e7903690600401610556565b505060206040515f8152f35b6060366003190112610185576004356001600160401b0381116101855761031e903690600401610556565b50506024356001600160401b0381116101855761033f903690600401610556565b50506044356001600160401b038111610185576101b4903690600401610556565b610731565b61066b565b610704565b34610185576020366003190112610185576004356001600160401b0381116101855761039f903690600401610556565b5050602060405160018152f35b60e0366003190112610185576004356001600160401b038111610185576103d7903690600401610556565b50506024356001600160401b038111610185576103f8903690600401610556565b5050610402610586565b5061040b61059c565b506104146105b2565b5061041d6105c1565b506104266105d0565b506104596104326107c7565b602061043d81610782565b905f82525f368137604051938493604085526040850190610611565b838103828501528180845192838152019301915f5b82811061047d57505050500390f35b83516001600160401b03168552869550938101939281019260010161046e565b34610185576060366003190112610185576104b6610546565b6044358060030b809103610185576001906104cf61074f565b9260070b8352602083015f81526040840191825260608401914283526004355f525f60205260405f209451916001600160401b0367ffffffffffffffff60401b8754925160401b16925160801b63ffffffff60801b169316906bffffffffffffffffffffffff60a01b161717178355519101555f80f35b602435908160070b820361018557565b9181601f84011215610185578235916001600160401b038311610185576020808501948460051b01011161018557565b604435906001600160401b038216820361018557565b606435906001600160401b038216820361018557565b60843590811515820361018557565b60a43590811515820361018557565b60c43590811515820361018557565b60608091805160070b84526001600160401b036020820151166020850152604081015160030b60408501520151910152565b90602080835192838152019201905f5b81811061062e5750505090565b9091926020610120600192610660604088518051845261065486820151878601906105df565b015160a08301906105df565b019401929101610621565b6080366003190112610185576004356001600160401b03811161018557610696903690600401610556565b50506024356001600160401b038111610185576106b7903690600401610556565b50506044356001600160401b038116810361018557506064356001600160401b038116810361018557506107006106ec6107c7565b604051918291602083526020830190610611565b0390f35b3461018557604036600319011261018557608061072260043561082e565b61072f60405180926105df565bf35b3461018557602036600319011261018557608061072260043561082e565b60405190608082018281106001600160401b0382111761076e57604052565b634e487b7160e01b5f52604160045260245ffd5b6040519190601f01601f191682016001600160401b0381118382101761076e57604052565b6107af61074f565b905f82525f60208301525f60408301525f6060830152565b6107d16020610782565b5f815290815f805b8181106107e557505050565b6040519060608201918083106001600160401b0384111761076e576020926040525f81526108116107a7565b8382015261081d6107a7565b6040820152828286010152016107d9565b6108366107a7565b505f525f60205260405f20600161084b61074f565b9180548060070b84526001600160401b038160401c16602085015260801c60030b6040840152015460608201529056fea264697066735822122005d970220b1ee4ff9654e9bdb3efa4abd7072d1b75173d2fca6467b5748e12e964736f6c634300081c0033",
  "linkReferences": {},
  "deployedLinkReferences": {},
  "immutableReferences": {},
  "inputSourceName": "project/test/mocks/PythMock.sol",
  "buildInfoId": "solc-0_8_28-13640a50ea8dc81965f3e5ecf9ff500b8eb64cc9"
}