{
  "_format": "hh3-artifact-1",
  "contractName": "UniversalPaymaster",
  "sourceName": "contracts/core/UniversalPaymaster.sol",
  "abi": [
    {
      "inputs": [
        {
          "internalType": "address",
          "name": "_pyth",
          "type": "address"
        },
        {
          "internalType": "bytes32",
          "name": "_ethFeedId",
          "type": "bytes32"
        }
      ],
      "stateMutability": "nonpayable",
      "type": "constructor"
    },
    {
      "inputs": [
        {
          "internalType": "address",
          "name": "spender",
          "type": "address"
        },
        {
          "internalType": "uint256",
          "name": "allowance",
          "type": "uint256"
        },
        {
          "internalType": "uint256",
          "name": "needed",
          "type": "uint256"
        },
        {
          "internalType": "uint256",
          "name": "id",
          "type": "uint256"
        }
      ],
      "name": "ERC6909InsufficientAllowance",
      "type": "error"
    },
    {
      "inputs": [
        {
          "internalType": "address",
          "name": "sender",
          "type": "address"
        },
        {
          "internalType": "uint256",
          "name": "balance",
          "type": "uint256"
        },
        {
          "internalType": "uint256",
          "name": "needed",
          "type": "uint256"
        },
        {
          "internalType": "uint256",
          "name": "id",
          "type": "uint256"
        }
      ],
      "name": "ERC6909InsufficientBalance",
      "type": "error"
    },
    {
      "inputs": [
        {
          "internalType": "address",
          "name": "approver",
          "type": "address"
        }
      ],
      "name": "ERC6909InvalidApprover",
      "type": "error"
    },
    {
      "inputs": [
        {
          "internalType": "address",
          "name": "receiver",
          "type": "address"
        }
      ],
      "name": "ERC6909InvalidReceiver",
      "type": "error"
    },
    {
      "inputs": [
        {
          "internalType": "address",
          "name": "sender",
          "type": "address"
        }
      ],
      "name": "ERC6909InvalidSender",
      "type": "error"
    },
    {
      "inputs": [
        {
          "internalType": "address",
          "name": "spender",
          "type": "address"
        }
      ],
      "name": "ERC6909InvalidSpender",
      "type": "error"
    },
    {
      "inputs": [
        {
          "internalType": "address",
          "name": "receiver",
          "type": "address"
        },
        {
          "internalType": "uint256",
          "name": "assets",
          "type": "uint256"
        },
        {
          "internalType": "uint256",
          "name": "max",
          "type": "uint256"
        },
        {
          "internalType": "uint256",
          "name": "id",
          "type": "uint256"
        }
      ],
      "name": "ERC6909NativeVaultExceededMaxDeposit",
      "type": "error"
    },
    {
      "inputs": [
        {
          "internalType": "address",
          "name": "receiver",
          "type": "address"
        },
        {
          "internalType": "uint256",
          "name": "shares",
          "type": "uint256"
        },
        {
          "internalType": "uint256",
          "name": "max",
          "type": "uint256"
        },
        {
          "internalType": "uint256",
          "name": "id",
          "type": "uint256"
        }
      ],
      "name": "ERC6909NativeVaultExceededMaxMint",
      "type": "error"
    },
    {
      "inputs": [
        {
          "internalType": "address",
          "name": "owner",
          "type": "address"
        },
        {
          "internalType": "uint256",
          "name": "shares",
          "type": "uint256"
        },
        {
          "internalType": "uint256",
          "name": "max",
          "type": "uint256"
        },
        {
          "internalType": "uint256",
          "name": "id",
          "type": "uint256"
        }
      ],
      "name": "ERC6909NativeVaultExceededMaxRedeem",
      "type": "error"
    },
    {
      "inputs": [
        {
          "internalType": "address",
          "name": "owner",
          "type": "address"
        },
        {
          "internalType": "uint256",
          "name": "assets",
          "type": "uint256"
        },
        {
          "internalType": "uint256",
          "name": "max",
          "type": "uint256"
        },
        {
          "internalType": "uint256",
          "name": "id",
          "type": "uint256"
        }
      ],
      "name": "ERC6909NativeVaultExceededMaxWithdraw",
      "type": "error"
    },
    {
      "inputs": [
        {
          "internalType": "uint256",
          "name": "assets",
          "type": "uint256"
        },
        {
          "internalType": "uint256",
          "name": "value",
          "type": "uint256"
        }
      ],
      "name": "ERC6909NativeVaultInvalidNativeAmount",
      "type": "error"
    },
    {
      "inputs": [
        {
          "internalType": "address",
          "name": "receiver",
          "type": "address"
        },
        {
          "internalType": "uint256",
          "name": "assets",
          "type": "uint256"
        }
      ],
      "name": "ERC6909NativeVaultWithdrawFailed",
      "type": "error"
    },
    {
      "inputs": [
        {
          "internalType": "uint256",
          "name": "amount",
          "type": "uint256"
        }
      ],
      "name": "InvalidAmount",
      "type": "error"
    },
    {
      "inputs": [
        {
          "internalType": "address",
          "name": "oracle",
          "type": "address"
        }
      ],
      "name": "InvalidOracle",
      "type": "error"
    },
    {
      "inputs": [
        {
          "internalType": "uint24",
          "name": "lpFeeBps",
          "type": "uint24"
        },
        {
          "internalType": "uint24",
          "name": "rebalancingFeeBps",
          "type": "uint24"
        }
      ],
      "name": "InvalidPoolFeeBps",
      "type": "error"
    },
    {
      "inputs": [
        {
          "internalType": "bytes32",
          "name": "tokenFeedId",
          "type": "bytes32"
        }
      ],
      "name": "InvalidPrice",
      "type": "error"
    },
    {
      "inputs": [
        {
          "internalType": "bytes32",
          "name": "tokenFeedId",
          "type": "bytes32"
        }
      ],
      "name": "InvalidTokenFeedId",
      "type": "error"
    },
    {
      "inputs": [
        {
          "internalType": "uint256",
          "name": "ethSent",
          "type": "uint256"
        },
        {
          "internalType": "uint256",
          "name": "ethRequired",
          "type": "uint256"
        }
      ],
      "name": "NotEnoughEthSent",
      "type": "error"
    },
    {
      "inputs": [],
      "name": "OutOfRangeAccess",
      "type": "error"
    },
    {
      "inputs": [
        {
          "internalType": "address",
          "name": "sender",
          "type": "address"
        }
      ],
      "name": "PaymasterUnauthorized",
      "type": "error"
    },
    {
      "inputs": [
        {
          "internalType": "address",
          "name": "token",
          "type": "address"
        }
      ],
      "name": "PoolAlreadyInitialized",
      "type": "error"
    },
    {
      "inputs": [
        {
          "internalType": "uint256",
          "name": "ethRequired",
          "type": "uint256"
        }
      ],
      "name": "PoolNotEnoughEthReserves",
      "type": "error"
    },
    {
      "inputs": [
        {
          "internalType": "uint256",
          "name": "tokensRequired",
          "type": "uint256"
        }
      ],
      "name": "PoolNotEnoughTokenReserves",
      "type": "error"
    },
    {
      "inputs": [
        {
          "internalType": "address",
          "name": "token",
          "type": "address"
        }
      ],
      "name": "PoolNotInitialized",
      "type": "error"
    },
    {
      "inputs": [
        {
          "internalType": "address",
          "name": "token",
          "type": "address"
        }
      ],
      "name": "SafeERC20FailedOperation",
      "type": "error"
    },
    {
      "anonymous": false,
      "inputs": [
        {
          "indexed": true,
          "internalType": "address",
          "name": "owner",
          "type": "address"
        },
        {
          "indexed": true,
          "internalType": "address",
          "name": "spender",
          "type": "address"
        },
        {
          "indexed": true,
          "internalType": "uint256",
          "name": "id",
          "type": "uint256"
        },
        {
          "indexed": false,
          "internalType": "uint256",
          "name": "amount",
          "type": "uint256"
        }
      ],
      "name": "Approval",
      "type": "event"
    },
    {
      "anonymous": false,
      "inputs": [
        {
          "indexed": true,
          "internalType": "address",
          "name": "caller",
          "type": "address"
        },
        {
          "indexed": true,
          "internalType": "address",
          "name": "receiver",
          "type": "address"
        },
        {
          "indexed": false,
          "internalType": "uint256",
          "name": "assets",
          "type": "uint256"
        },
        {
          "indexed": false,
          "internalType": "uint256",
          "name": "shares",
          "type": "uint256"
        },
        {
          "indexed": false,
          "internalType": "uint256",
          "name": "id",
          "type": "uint256"
        }
      ],
      "name": "Deposit",
      "type": "event"
    },
    {
      "anonymous": false,
      "inputs": [
        {
          "indexed": true,
          "internalType": "address",
          "name": "owner",
          "type": "address"
        },
        {
          "indexed": true,
          "internalType": "address",
          "name": "spender",
          "type": "address"
        },
        {
          "indexed": false,
          "internalType": "bool",
          "name": "approved",
          "type": "bool"
        }
      ],
      "name": "OperatorSet",
      "type": "event"
    },
    {
      "anonymous": false,
      "inputs": [
        {
          "indexed": false,
          "internalType": "address",
          "name": "token",
          "type": "address"
        },
        {
          "indexed": false,
          "internalType": "bytes32",
          "name": "tokenFeedId",
          "type": "bytes32"
        },
        {
          "indexed": false,
          "internalType": "uint24",
          "name": "lpFeeBps",
          "type": "uint24"
        },
        {
          "indexed": false,
          "internalType": "uint24",
          "name": "rebalancingFeeBps",
          "type": "uint24"
        }
      ],
      "name": "PoolInitialized",
      "type": "event"
    },
    {
      "anonymous": false,
      "inputs": [
        {
          "indexed": false,
          "internalType": "address",
          "name": "token",
          "type": "address"
        },
        {
          "indexed": false,
          "internalType": "uint256",
          "name": "ethAmount",
          "type": "uint256"
        },
        {
          "indexed": false,
          "internalType": "uint256",
          "name": "tokenAmount",
          "type": "uint256"
        }
      ],
      "name": "PoolRebalanced",
      "type": "event"
    },
    {
      "anonymous": false,
      "inputs": [
        {
          "indexed": false,
          "internalType": "address",
          "name": "caller",
          "type": "address"
        },
        {
          "indexed": true,
          "internalType": "address",
          "name": "sender",
          "type": "address"
        },
        {
          "indexed": true,
          "internalType": "address",
          "name": "receiver",
          "type": "address"
        },
        {
          "indexed": true,
          "internalType": "uint256",
          "name": "id",
          "type": "uint256"
        },
        {
          "indexed": false,
          "internalType": "uint256",
          "name": "amount",
          "type": "uint256"
        }
      ],
      "name": "Transfer",
      "type": "event"
    },
    {
      "anonymous": false,
      "inputs": [
        {
          "indexed": true,
          "internalType": "address",
          "name": "caller",
          "type": "address"
        },
        {
          "indexed": true,
          "internalType": "address",
          "name": "receiver",
          "type": "address"
        },
        {
          "indexed": true,
          "internalType": "address",
          "name": "owner",
          "type": "address"
        },
        {
          "indexed": false,
          "internalType": "uint256",
          "name": "assets",
          "type": "uint256"
        },
        {
          "indexed": false,
          "internalType": "uint256",
          "name": "shares",
          "type": "uint256"
        },
        {
          "indexed": false,
          "internalType": "uint256",
          "name": "id",
          "type": "uint256"
        }
      ],
      "name": "Withdraw",
      "type": "event"
    },
    {
      "inputs": [
        {
          "internalType": "address",
          "name": "owner",
          "type": "address"
        },
        {
          "internalType": "address",
          "name": "spender",
          "type": "address"
        },
        {
          "internalType": "uint256",
          "name": "id",
          "type": "uint256"
        }
      ],
      "name": "allowance",
      "outputs": [
        {
          "internalType": "uint256",
          "name": "",
          "type": "uint256"
        }
      ],
      "stateMutability": "view",
      "type": "function"
    },
    {
      "inputs": [
        {
          "internalType": "address",
          "name": "spender",
          "type": "address"
        },
        {
          "internalType": "uint256",
          "name": "id",
          "type": "uint256"
        },
        {
          "internalType": "uint256",
          "name": "amount",
          "type": "uint256"
        }
      ],
      "name": "approve",
      "outputs": [
        {
          "internalType": "bool",
          "name": "",
          "type": "bool"
        }
      ],
      "stateMutability": "nonpayable",
      "type": "function"
    },
    {
      "inputs": [
        {
          "internalType": "address",
          "name": "owner",
          "type": "address"
        },
        {
          "internalType": "uint256",
          "name": "id",
          "type": "uint256"
        }
      ],
      "name": "balanceOf",
      "outputs": [
        {
          "internalType": "uint256",
          "name": "",
          "type": "uint256"
        }
      ],
      "stateMutability": "view",
      "type": "function"
    },
    {
      "inputs": [
        {
          "internalType": "uint256",
          "name": "assets",
          "type": "uint256"
        },
        {
          "internalType": "address",
          "name": "receiver",
          "type": "address"
        },
        {
          "internalType": "uint256",
          "name": "id",
          "type": "uint256"
        }
      ],
      "name": "deposit",
      "outputs": [
        {
          "internalType": "uint256",
          "name": "",
          "type": "uint256"
        }
      ],
      "stateMutability": "payable",
      "type": "function"
    },
    {
      "inputs": [],
      "name": "entryPoint",
      "outputs": [
        {
          "internalType": "contract IEntryPoint",
          "name": "",
          "type": "address"
        }
      ],
      "stateMutability": "view",
      "type": "function"
    },
    {
      "inputs": [],
      "name": "ethFeedId",
      "outputs": [
        {
          "internalType": "bytes32",
          "name": "",
          "type": "bytes32"
        }
      ],
      "stateMutability": "view",
      "type": "function"
    },
    {
      "inputs": [
        {
          "internalType": "address",
          "name": "token",
          "type": "address"
        }
      ],
      "name": "getPoolEthReserves",
      "outputs": [
        {
          "internalType": "uint256",
          "name": "ethReserves",
          "type": "uint256"
        }
      ],
      "stateMutability": "view",
      "type": "function"
    },
    {
      "inputs": [
        {
          "internalType": "address",
          "name": "token",
          "type": "address"
        }
      ],
      "name": "getPoolTokenReserves",
      "outputs": [
        {
          "internalType": "uint256",
          "name": "tokenReserves",
          "type": "uint256"
        }
      ],
      "stateMutability": "view",
      "type": "function"
    },
    {
      "inputs": [
        {
          "internalType": "bytes32",
          "name": "tokenFeedId",
          "type": "bytes32"
        }
      ],
      "name": "getTokenPriceInEth",
      "outputs": [
        {
          "internalType": "uint256",
          "name": "priceInEth",
          "type": "uint256"
        }
      ],
      "stateMutability": "view",
      "type": "function"
    },
    {
      "inputs": [
        {
          "internalType": "address",
          "name": "token",
          "type": "address"
        },
        {
          "internalType": "uint24",
          "name": "lpFeeBps",
          "type": "uint24"
        },
        {
          "internalType": "uint24",
          "name": "rebalancingFeeBps",
          "type": "uint24"
        },
        {
          "internalType": "bytes32",
          "name": "tokenFeedId",
          "type": "bytes32"
        }
      ],
      "name": "initializePool",
      "outputs": [],
      "stateMutability": "nonpayable",
      "type": "function"
    },
    {
      "inputs": [
        {
          "internalType": "address",
          "name": "owner",
          "type": "address"
        },
        {
          "internalType": "address",
          "name": "spender",
          "type": "address"
        }
      ],
      "name": "isOperator",
      "outputs": [
        {
          "internalType": "bool",
          "name": "",
          "type": "bool"
        }
      ],
      "stateMutability": "view",
      "type": "function"
    },
    {
      "inputs": [
        {
          "internalType": "address",
          "name": "",
          "type": "address"
        },
        {
          "internalType": "uint256",
          "name": "",
          "type": "uint256"
        }
      ],
      "name": "maxDeposit",
      "outputs": [
        {
          "internalType": "uint256",
          "name": "",
          "type": "uint256"
        }
      ],
      "stateMutability": "view",
      "type": "function"
    },
    {
      "inputs": [
        {
          "internalType": "address",
          "name": "",
          "type": "address"
        },
        {
          "internalType": "uint256",
          "name": "",
          "type": "uint256"
        }
      ],
      "name": "maxMint",
      "outputs": [
        {
          "internalType": "uint256",
          "name": "",
          "type": "uint256"
        }
      ],
      "stateMutability": "view",
      "type": "function"
    },
    {
      "inputs": [
        {
          "internalType": "address",
          "name": "owner",
          "type": "address"
        },
        {
          "internalType": "uint256",
          "name": "id",
          "type": "uint256"
        }
      ],
      "name": "maxRedeem",
      "outputs": [
        {
          "internalType": "uint256",
          "name": "",
          "type": "uint256"
        }
      ],
      "stateMutability": "view",
      "type": "function"
    },
    {
      "inputs": [
        {
          "internalType": "address",
          "name": "owner",
          "type": "address"
        },
        {
          "internalType": "uint256",
          "name": "id",
          "type": "uint256"
        }
      ],
      "name": "maxWithdraw",
      "outputs": [
        {
          "internalType": "uint256",
          "name": "",
          "type": "uint256"
        }
      ],
      "stateMutability": "view",
      "type": "function"
    },
    {
      "inputs": [
        {
          "internalType": "address",
          "name": "token",
          "type": "address"
        }
      ],
      "name": "pools",
      "outputs": [
        {
          "internalType": "address",
          "name": "token",
          "type": "address"
        },
        {
          "internalType": "bytes32",
          "name": "tokenFeedId",
          "type": "bytes32"
        },
        {
          "internalType": "uint24",
          "name": "lpFeeBps",
          "type": "uint24"
        },
        {
          "internalType": "uint24",
          "name": "rebalancingFeeBps",
          "type": "uint24"
        }
      ],
      "stateMutability": "view",
      "type": "function"
    },
    {
      "inputs": [
        {
          "internalType": "enum IPaymaster.PostOpMode",
          "name": "mode",
          "type": "uint8"
        },
        {
          "internalType": "bytes",
          "name": "context",
          "type": "bytes"
        },
        {
          "internalType": "uint256",
          "name": "actualGasCost",
          "type": "uint256"
        },
        {
          "internalType": "uint256",
          "name": "actualUserOpFeePerGas",
          "type": "uint256"
        }
      ],
      "name": "postOp",
      "outputs": [],
      "stateMutability": "nonpayable",
      "type": "function"
    },
    {
      "inputs": [
        {
          "internalType": "uint256",
          "name": "assets",
          "type": "uint256"
        },
        {
          "internalType": "uint256",
          "name": "id",
          "type": "uint256"
        }
      ],
      "name": "previewDeposit",
      "outputs": [
        {
          "internalType": "uint256",
          "name": "",
          "type": "uint256"
        }
      ],
      "stateMutability": "view",
      "type": "function"
    },
    {
      "inputs": [
        {
          "internalType": "uint256",
          "name": "shares",
          "type": "uint256"
        },
        {
          "internalType": "uint256",
          "name": "id",
          "type": "uint256"
        }
      ],
      "name": "previewMint",
      "outputs": [
        {
          "internalType": "uint256",
          "name": "",
          "type": "uint256"
        }
      ],
      "stateMutability": "view",
      "type": "function"
    },
    {
      "inputs": [
        {
          "internalType": "uint256",
          "name": "shares",
          "type": "uint256"
        },
        {
          "internalType": "uint256",
          "name": "id",
          "type": "uint256"
        }
      ],
      "name": "previewRedeem",
      "outputs": [
        {
          "internalType": "uint256",
          "name": "",
          "type": "uint256"
        }
      ],
      "stateMutability": "view",
      "type": "function"
    },
    {
      "inputs": [
        {
          "internalType": "uint256",
          "name": "assets",
          "type": "uint256"
        },
        {
          "internalType": "uint256",
          "name": "id",
          "type": "uint256"
        }
      ],
      "name": "previewWithdraw",
      "outputs": [
        {
          "internalType": "uint256",
          "name": "",
          "type": "uint256"
        }
      ],
      "stateMutability": "view",
      "type": "function"
    },
    {
      "inputs": [],
      "name": "pyth",
      "outputs": [
        {
          "internalType": "contract IPyth",
          "name": "",
          "type": "address"
        }
      ],
      "stateMutability": "view",
      "type": "function"
    },
    {
      "inputs": [
        {
          "internalType": "address",
          "name": "token",
          "type": "address"
        },
        {
          "internalType": "uint256",
          "name": "tokenAmount",
          "type": "uint256"
        },
        {
          "internalType": "address",
          "name": "receiver",
          "type": "address"
        }
      ],
      "name": "rebalance",
      "outputs": [
        {
          "internalType": "uint256",
          "name": "ethAmountAfterDiscount",
          "type": "uint256"
        }
      ],
      "stateMutability": "payable",
      "type": "function"
    },
    {
      "inputs": [
        {
          "internalType": "address",
          "name": "spender",
          "type": "address"
        },
        {
          "internalType": "bool",
          "name": "approved",
          "type": "bool"
        }
      ],
      "name": "setOperator",
      "outputs": [
        {
          "internalType": "bool",
          "name": "",
          "type": "bool"
        }
      ],
      "stateMutability": "nonpayable",
      "type": "function"
    },
    {
      "inputs": [
        {
          "internalType": "bytes4",
          "name": "interfaceId",
          "type": "bytes4"
        }
      ],
      "name": "supportsInterface",
      "outputs": [
        {
          "internalType": "bool",
          "name": "",
          "type": "bool"
        }
      ],
      "stateMutability": "view",
      "type": "function"
    },
    {
      "inputs": [
        {
          "internalType": "uint256",
          "name": "id",
          "type": "uint256"
        }
      ],
      "name": "totalAssets",
      "outputs": [
        {
          "internalType": "uint256",
          "name": "",
          "type": "uint256"
        }
      ],
      "stateMutability": "view",
      "type": "function"
    },
    {
      "inputs": [
        {
          "internalType": "uint256",
          "name": "id",
          "type": "uint256"
        }
      ],
      "name": "totalSupply",
      "outputs": [
        {
          "internalType": "uint256",
          "name": "",
          "type": "uint256"
        }
      ],
      "stateMutability": "view",
      "type": "function"
    },
    {
      "inputs": [
        {
          "internalType": "address",
          "name": "receiver",
          "type": "address"
        },
        {
          "internalType": "uint256",
          "name": "id",
          "type": "uint256"
        },
        {
          "internalType": "uint256",
          "name": "amount",
          "type": "uint256"
        }
      ],
      "name": "transfer",
      "outputs": [
        {
          "internalType": "bool",
          "name": "",
          "type": "bool"
        }
      ],
      "stateMutability": "nonpayable",
      "type": "function"
    },
    {
      "inputs": [
        {
          "internalType": "address",
          "name": "sender",
          "type": "address"
        },
        {
          "internalType": "address",
          "name": "receiver",
          "type": "address"
        },
        {
          "internalType": "uint256",
          "name": "id",
          "type": "uint256"
        },
        {
          "internalType": "uint256",
          "name": "amount",
          "type": "uint256"
        }
      ],
      "name": "transferFrom",
      "outputs": [
        {
          "internalType": "bool",
          "name": "",
          "type": "bool"
        }
      ],
      "stateMutability": "nonpayable",
      "type": "function"
    },
    {
      "inputs": [
        {
          "components": [
            {
              "internalType": "address",
              "name": "sender",
              "type": "address"
            },
            {
              "internalType": "uint256",
              "name": "nonce",
              "type": "uint256"
            },
            {
              "internalType": "bytes",
              "name": "initCode",
              "type": "bytes"
            },
            {
              "internalType": "bytes",
              "name": "callData",
              "type": "bytes"
            },
            {
              "internalType": "bytes32",
              "name": "accountGasLimits",
              "type": "bytes32"
            },
            {
              "internalType": "uint256",
              "name": "preVerificationGas",
              "type": "uint256"
            },
            {
              "internalType": "bytes32",
              "name": "gasFees",
              "type": "bytes32"
            },
            {
              "internalType": "bytes",
              "name": "paymasterAndData",
              "type": "bytes"
            },
            {
              "internalType": "bytes",
              "name": "signature",
              "type": "bytes"
            }
          ],
          "internalType": "struct PackedUserOperation",
          "name": "userOp",
          "type": "tuple"
        },
        {
          "internalType": "bytes32",
          "name": "userOpHash",
          "type": "bytes32"
        },
        {
          "internalType": "uint256",
          "name": "maxCost",
          "type": "uint256"
        }
      ],
      "name": "validatePaymasterUserOp",
      "outputs": [
        {
          "internalType": "bytes",
          "name": "context",
          "type": "bytes"
        },
        {
          "internalType": "uint256",
          "name": "validationData",
          "type": "uint256"
        }
      ],
      "stateMutability": "nonpayable",
      "type": "function"
    },
    {
      "inputs": [
        {
          "internalType": "uint256",
          "name": "assets",
          "type": "uint256"
        },
        {
          "internalType": "address",
          "name": "receiver",
          "type": "address"
        },
        {
          "internalType": "address",
          "name": "owner",
          "type": "address"
        },
        {
          "internalType": "uint256",
          "name": "id",
          "type": "uint256"
        }
      ],
      "name": "withdraw",
      "outputs": [
        {
          "internalType": "uint256",
          "name": "",
          "type": "uint256"
        }
      ],
      "stateMutability": "nonpayable",
      "type": "function"
    }
  ],
  "bytecode": "0x60c03461009357601f61205438819003918201601f19168301916001600160401b038311848410176100975780849260409485528339810103126100935780516001600160a01b038116919082900361009357602001519060805260a052604051611fa890816100ac823960805181818161022001528181610b5301526114b3015260a051818181610cc7015261150c0152f35b5f80fd5b634e487b7160e01b5f52604160045260245ffdfe6080806040526004361015610012575f80fd5b5f905f3560e01c908162fdd58e146111ad5750806301ffc9a7146111575780630485448514610ff7578063095bcdb614610fdf578063276b114014610f7d578063390b590414610f5f578063426a849314610ee0578063488bd7b014610ec75780634abe413714610e8457806352b7512c14610e1a578063558a729714610d5d578063598af9e714610d035780637a7af70d14610cea5780637bcf6cde14610cb05780637c627b2114610a8257806385b6875614610a3b5780638cc3eaf81461081157806394605857146107e7578063a318c1a4146105a6578063a4063dbc1461052e578063a7df230b146104a2578063b0d691fe146104ff578063b6363cf2146104a7578063bbc7fdf5146104a2578063bbec4d0614610488578063bc157ac1146102d9578063bd85b039146102af578063db01dc4e14610288578063e6d82c7a1461024f578063f98d06f01461020a5763fe99049a14610172575f80fd5b34610207576080366003190112610207576101c19061018f6111eb565b610197611201565b6064359260443592906001600160a01b038216338114159190826101dd575b50506101cc576115d4565b602060405160018152f35b6101d884843384611cc6565b6115d4565b60409250815260016020522060018060a01b0333165f5260205260ff60405f205416155f806101b6565b80fd5b50346102075780600319360112610207576040517f00000000000000000000000000000000000000000000000000000000000000006001600160a01b03168152602090f35b5034610207576020366003190112610207576020906040906001600160a01b036102776111eb565b168152600483522054604051908152f35b50346102075760203660031901126102075760206102a7600435611490565b604051908152f35b50346102075760203660031901126102075760406020916004358152600383522054604051908152f35b506060366003190112610207576004356102f1611201565b90604435348203610470576103068183611762565b926103118383611b54565b6001600160a01b031690811561045c578185528460205260408520818652602052604085206103418582546116de565b90558082867f1b3d7edb2e9c0b0e7c525b20aaaef0f5940d2ed71663c7d39266ecafac72885960408051338152896020820152a480855260036020526040852061038c8582546116de565b90557f4e2ca0515ed1aef1395f66b5303bb5d6f1bf9d61a353fa53f73f8ac9973fa9f6604051806103d133948888846040919493926060820195825260208201520152565b0390a382734337084d9e255ff0702461cf8895ce9e3b5ff1083b156102075760405163b760faf960e01b81523060048201529182906024908290734337084d9e255ff0702461cf8895ce9e3b5ff1085af1801561045157610438575b602082604051908152f35b61044383809261132b565b61044d578161042d565b5080fd5b6040513d85823e3d90fd5b630b8bbd6160e41b85526004859052602485fd5b630e9b22e760e11b8452600482905234602452604484fd5b50346102075760206102a761049c3661126b565b906116eb565b6112a5565b50346102075760403660031901126102075760406104c36111eb565b916104cc611201565b9260018060a01b031681526001602052209060018060a01b03165f52602052602060ff60405f2054166040519015158152f35b50346102075780600319360112610207576020604051734337084d9e255ff0702461cf8895ce9e3b5ff1088152f35b5034610207576020366003190112610207576040906001600160a01b036105536111eb565b1681526005602090815291902080546001820154600290920154604080516001600160a01b0390931683529382019290925262ffffff8083169382019390935260189190911c9091166060820152608090f35b5034610207576080366003190112610207576004356105c3611201565b6105cb611217565b916064359160018060a01b0384169081865285602052604086208487526020526105f98460408820546116eb565b8084116107b0575061060b8484611726565b9482330361079f575b821561078b5782875286602052604087208588526020526040872054908682106107525750859083885287602052604088208689526020520360408720558386837f1b3d7edb2e9c0b0e7c525b20aaaef0f5940d2ed71663c7d39266ecafac728859604080513381528a6020820152a48386526003602052604086208581540390556106a08385611e0b565b6040805184815260208101879052908101949094526001600160a01b031692839033907fbbbdee62287b5bf3bee13cab60a29ad729cf38109bccbd2a986a11c99b8ca70490606090a4734337084d9e255ff0702461cf8895ce9e3b5ff1083b1561074e576040519163040b850f60e31b835260048301526024820152828160448183734337084d9e255ff0702461cf8895ce9e3b5ff1085af180156104515761043857602082604051908152f35b8380fd5b6040516302c6d3fb60e61b81526001600160a01b0391909116600482015260248101919091526044810186905260648101859052608490fd5b6301486a4160e71b87526004879052602487fd5b6107ab86863384611cc6565b610614565b60405163177578af60e01b81526001600160a01b038716600482015260248101859052604481019190915260648101859052608490fd5b50346102075760203660031901126102075760406020916004358152600483522054604051908152f35b506060366003190112610207576108266111eb565b90602435610832611217565b918115610a29576001600160a01b038416808252600560205260408083209051919584906108a790610863856112fc565b60018060a01b0384541685526108a281600186015462ffffff6060600260208b0199848b52015499828b166040820152019860181c16885215156113b5565b61134c565b10610a1557906127106108e062ffffff670de0b6b3a76400006108d66108d06108e79751611490565b896113f0565b04935116836113f0565b0490611421565b928334106109fd576108f98486611b54565b734337084d9e255ff0702461cf8895ce9e3b5ff1083b1561044d5760405163b760faf960e01b8152306004820152828160248188734337084d9e255ff0702461cf8895ce9e3b5ff1085af1801561045157849184916109e4575b505061095f9186611b6e565b6109698334611421565b801580156109b3575b6020857fe371b3e1ed0ff4cdf49293c7f58b8ada07130ee2c85e3fbf8c4eeecb6815a4a46060898860405191825284868301526040820152a1604051908152f35b82808093819382906109db575b3390f1156109cf578080610972565b604051903d90823e3d90fd5b506108fc6109c0565b819250906109f19161132b565b61044d5782825f610953565b635913e87d60e01b8252346004526024849052604482fd5b6332776ee760e11b83526004849052602483fd5b602491633728b83d60e01b8252600452fd5b50346102075760403660031901126102075760206102a7610a5a6111eb565b6001600160a01b03165f908152602081815260408083206024358085529252909120546116eb565b5034610c78576080366003190112610c785760036004351015610c7857602435906001600160401b038211610c785736602383011215610c785781600401356001600160401b038111610c78578201916024830192368411610c785760c090610ae961179d565b82900312610c7857610afd6024820161122d565b92610b0a6044830161122d565b9060c4830135906001600160401b038211610c78576024610b2d928501016117cd565b60405163d47eed4560e01b81526020600482018190526001600160a01b039384169391927f000000000000000000000000000000000000000000000000000000000000000090921691908380610b8660248201856118b0565b0381855afa928315610c6d575f93610c7c575b50813b15610c78575f91610bcb91604051948580948193631df3cbc560e31b83526020600484015260248301906118b0565b03925af18015610c6d57610c57575b50610c3a9293610c2d610bf9610bf16064356113dd565b6044356116de565b9360a4610c25610c0d606484013588611e21565b612710610c1e6084860135836113f0565b04906116de565b910135611421565b80610c3d575b5050611e0b565b80f35b610c50916001600160a01b031683611b6e565b5f80610c33565b610c3a93505f610c669161132b565b5f92610bda565b6040513d5f823e3d90fd5b5f80fd5b9092506020813d602011610ca8575b81610c986020938361132b565b81010312610c785751915f610b99565b3d9150610c8b565b34610c78575f366003190112610c785760206040517f00000000000000000000000000000000000000000000000000000000000000008152f35b34610c785760206102a7610cfd3661126b565b90611762565b34610c78576060366003190112610c7857610d1c6111eb565b610d24611201565b6001600160a01b039182165f90815260026020908152604080832094909316825292835281812060443582528352819020549051908152f35b34610c78576040366003190112610c7857610d766111eb565b60243590811515809203610c78573315610e07576001600160a01b0316908115610df457335f52600160205260405f20825f5260205260405f2060ff1981541660ff83161790556040519081527fceb576d9f15e4e200fdb5096d64d5dfd667e16def20c1eefd14256d8e3faa26760203392a3602060405160018152f35b636f65f46560e01b5f525f60045260245ffd5b63198ecd5360e31b5f525f60045260245ffd5b34610c78576060366003190112610c78576004356001600160401b038111610c78576101206003198236030112610c7857610e66610e7a91610e5a61179d565b60443590600401611908565b604051928392604084526040840190611281565b9060208301520390f35b34610c78576040366003190112610c785760206102a7610ea26111eb565b6001600160a01b03165f90815260208181526040808320602435845290915290205490565b34610c785760206102a7610eda3661126b565b90611726565b34610c7857610eee36611241565b90913315610e07576001600160a01b0316908115610df457335f52600260205260405f20825f5260205260405f20835f526020528060405f20556040519081527fb3fd5071835887567a0671151121894ddccc2842f1d10bedad13e0d17cace9a760203392a4602060405160018152f35b34610c78576020366003190112610c785760206102a76108a26111eb565b34610c7857610f8b3661126b565b805f52600460205260405f20549060018201809211610fcb575f52600360205260405f20549160018301809311610fcb576020926102a792600192611d7b565b634e487b7160e01b5f52601160045260245ffd5b34610c78576101c1610ff036611241565b91336115d4565b34610c78576080366003190112610c78576110106111eb565b6024359062ffffff821690818303610c78576044359262ffffff8416808503610c78576001600160a01b0383165f818152600560205260409020600101546064359591929061114457611065868015156112ca565b61271062ffffff61107689876112e4565b161161112f57505f8281526005602090815260409182902080546001600160a01b0319169094178455600184018790556002909301805465ffffff0000001990931665ffffffffffff1990931692909217601888901b65ffffff000000161790915580516001600160a01b0390941684529083019390935262ffffff90811692820192909252911660608201527f4125f97621ac74c28b7c13b1dce5bcfcb51be0f2826e35b2c9b370ca79845cb29080608081010390a1005b9062b195db60e81b5f5260045260245260445ffd5b8263218e374760e01b5f5260045260245ffd5b34610c78576020366003190112610c785760043563ffffffff60e01b8116809103610c7857602090630f632fb360e01b811490811561119c575b506040519015158152f35b6301ffc9a760e01b14905082611191565b34610c78576040366003190112610c78576020906001600160a01b036111d16111eb565b165f525f825260405f206024355f52825260405f20548152f35b600435906001600160a01b0382168203610c7857565b602435906001600160a01b0382168203610c7857565b604435906001600160a01b0382168203610c7857565b35906001600160a01b0382168203610c7857565b6060906003190112610c78576004356001600160a01b0381168103610c7857906024359060443590565b6040906003190112610c78576004359060243590565b805180835260209291819084018484015e5f828201840152601f01601f1916010190565b34610c78576040366003190112610c78576112be6111eb565b5060206040515f198152f35b156112d25750565b6316afa6d360e21b5f5260045260245ffd5b9062ffffff8091169116019062ffffff8211610fcb57565b608081019081106001600160401b0382111761131757604052565b634e487b7160e01b5f52604160045260245ffd5b90601f801991011681019081106001600160401b0382111761131757604052565b6040516370a0823160e01b815230600482015290602090829060249082906001600160a01b03165afa908115610c6d575f91611386575090565b90506020813d6020116113ad575b816113a16020938361132b565b81010312610c78575190565b3d9150611394565b156113bd5750565b634bdace1360e01b5f9081526001600160a01b0391909116600452602490fd5b9081615d8b0291615d8b830403610fcb57565b81810292918115918404141715610fcb57565b811561140d570490565b634e487b7160e01b5f52601260045260245ffd5b91908203918211610fcb57565b90816080910312610c785760405190611446826112fc565b80518060070b8103610c7857825260208101516001600160401b0381168103610c785760208301526040810151908160030b8203610c785760609160408401520151606082015290565b9061149d828015156112ca565b6040516396834ad360e01b8152600481018390527f00000000000000000000000000000000000000000000000000000000000000006001600160a01b0316608082602481845afa908115610c6d576024925f926115b2575b50608090604051938480926396834ad360e01b82527f000000000000000000000000000000000000000000000000000000000000000060048301525afa918215610c6d575f92611581575b505f815160070b1380611574575b156115615761155e929350611c03565b90565b8363cd97203f60e01b5f5260045260245ffd5b505f825160070b1361154e565b6115a491925060803d6080116115ab575b61159c818361132b565b81019061142e565b905f611540565b503d611592565b60809192506115cd90823d84116115ab5761159c818361132b565b91906114f5565b91926001600160a01b0383169182156116cb576001600160a01b03169283156116b857825f525f60205260405f20855f5260205260405f20549082821061167f5750817f1b3d7edb2e9c0b0e7c525b20aaaef0f5940d2ed71663c7d39266ecafac72885992604092855f525f602052835f20885f5260205203825f2055845f525f602052815f20865f52602052815f2061166f8282546116de565b90558151903382526020820152a4565b6040516302c6d3fb60e61b81526001600160a01b0391909116600482015260248101919091526044810182905260648101859052608490fd5b630b8bbd6160e41b5f525f60045260245ffd5b6301486a4160e71b5f525f60045260245ffd5b91908201809211610fcb57565b815f52600460205260405f20549160018301809311610fcb575f52600360205260405f205460018101809111610fcb5761155e925f92611d7b565b815f52600360205260405f20549160018301809311610fcb575f52600460205260405f205460018101809111610fcb5761155e92600192611d7b565b815f52600360205260405f20549160018301809311610fcb575f52600460205260405f205460018101809111610fcb5761155e925f92611d7b565b734337084d9e255ff0702461cf8895ce9e3b5ff10833036117ba57565b63327499a760e01b5f523360045260245ffd5b9080601f83011215610c78578135916001600160401b038311611317578260051b604051936117ff602083018661132b565b845260208085019183010191838311610c785760208101915b83831061182757505050505090565b82356001600160401b038111610c7857820185603f82011215610c78576020810135916001600160401b0383116113175760405161186f601f8501601f19166020018261132b565b8381526040838501018810610c78575f602085819660408397018386013783010152815201920191611818565b356001600160a01b0381168103610c785790565b9080602083519182815201916020808360051b8301019401925f915b8383106118db57505050505090565b90919293946020806118f9600193601f198682030187528951611281565b970193019301919392906118cc565b91905f9260e08101603461191c8284611dd9565b9050105f14611b3357505f905f5b820191604081840312610c78576119408161122d565b9260208201356001600160401b038111610c785761195e92016117cd565b9160018060a01b031692835f52600560205260405f2060405190611981826112fc565b60018060a01b0381541682526001810154906119c3876002602086019385855201549362ffffff606060408801978288168952019560181c16855215156113b5565b865f5260046020528360405f205410611b205762ffffff9594939286611a2b611a05611a4095836119f7611a339751611490565b9b8c965116915116906112e4565b95611a256fffffffffffffffffffffffffffffffff60c08a0135166113dd565b906116de565b941693611e21565b612710610c1e84836113f0565b91611a4a8161189c565b6040516323b872dd60e01b5f9081526001600160a01b0390921660045230602452604485905290602090606481808b5af19060015f5114821615611b11575b6040525f60605215611af25791611aee949391611aa8611ae09461189c565b9460405197889660018060a01b0316602088015260408701526060860152608085015260a084015260c08084015260e08301906118b0565b03601f19810183528261132b565b9190565b5050505050509050604051611b0860208261132b565b5f815290600190565b90873b15153d15161690611a89565b83630896f54360e31b5f5260045260245ffd5b611b3d9082611dd9565b919082603411610c7857603401916033190161192a565b5f526004602052611b6a60405f209182546116de565b9055565b916040519163a9059cbb60e01b5f5260018060a01b031660045260245260205f60448180865af19060015f5114821615611bce575b60405215611bae5750565b635274afe760e01b5f9081526001600160a01b0391909116600452602490fd5b906001811516611be657823b15153d15161690611ba3565b503d5f823e3d90fd5b63ffffffff16604d8111610fcb57600a0a90565b906001600160401b03825116906040806001600160401b0383511694015160030b91015160030b900391637fffffff8313637fffffff19841217610fcb57670de0b6b3a7640000820291808304670de0b6b3a76400001490151715610fcb57611c6b91611403565b8160030b80155f14611c7d5750905090565b5f811315611c9e5750611c9861155e9263ffffffff16611bef565b906113f0565b9150637fffffff198214610fcb57611cc061155e925f0363ffffffff16611bef565b90611403565b6001600160a01b039081165f8181526002602090815260408083209486168352938152838220868352905291909120549291905f198410611d09575b5050505050565b848410611d43575f52600260205260405f209060018060a01b03165f5260205260405f20905f526020520360405f20555f80808080611d02565b50604051632c51fead60e11b81526001600160a01b039190911660048201526024810192909252604482018390526064820152608490fd5b9291611d88818386611ed4565b926004811015611dc5576001809116149182611dae575b505061155e92501515906116de565b908092501561140d5761155e930915155f80611d9f565b634e487b7160e01b5f52602160045260245ffd5b903590601e1981360301821215610c7857018035906001600160401b038211610c7857602001918136038313610c7857565b5f526004602052611b6a60405f20918254611421565b5f19670de0b6b3a7640000820991670de0b6b3a7640000820291828085109403938085039414611ec85783821115611eb057670de0b6b3a7640000829109815f0382168092046002816003021880820260020302808202600203028082026002030280820260020302808202600203028091026002030293600183805f03040190848311900302920304170290565b50634e487b715f52156003026011186020526024601cfd5b509061155e9250611403565b90915f198383099280830292838086109503948086039514611f655784831115611f4d5790829109815f0382168092046002816003021880820260020302808202600203028082026002030280820260020302808202600203028091026002030293600183805f03040190848311900302920304170290565b82634e487b715f52156003026011186020526024601cfd5b50509061155e925061140356fea2646970667358221220c77724ef94211de2f95fea4f09655903d39e5e5d0b31ad2d403e58d5ad51fc8164736f6c634300081c0033",
  "linkReferences": {},
  "deployedLinkReferences": {},
  "immutableReferences": {
    "9713": [
      {
        "length": 32,
        "start": 544
      },
      {
        "length": 32,
        "start": 2899
      },
      {
        "length": 32,
        "start": 5299
      }
    ],
    "9716": [
      {
        "length": 32,
        "start": 3271
      },
      {
        "length": 32,
        "start": 5388
      }
    ]
  },
  "inputSourceName": "project/contracts/core/UniversalPaymaster.sol",
  "buildInfoId": "solc-0_8_28-fc7ab217d74237589a5a0ff3bd58220a7de6abf2"
}