{
  "_format": "hh3-artifact-1",
  "contractName": "SimpleAccount7702Mock",
  "sourceName": "test/mocks/SimpleAccount7702Mock.sol",
  "abi": [
    {
      "inputs": [
        {
          "internalType": "address",
          "name": "sender",
          "type": "address"
        }
      ],
      "name": "AccountUnauthorized",
      "type": "error"
    },
    {
      "inputs": [],
      "name": "entryPoint",
      "outputs": [
        {
          "internalType": "contract IEntryPoint",
          "name": "",
          "type": "address"
        }
      ],
      "stateMutability": "view",
      "type": "function"
    },
    {
      "inputs": [
        {
          "internalType": "address",
          "name": "target",
          "type": "address"
        },
        {
          "internalType": "uint256",
          "name": "value",
          "type": "uint256"
        },
        {
          "internalType": "bytes",
          "name": "data",
          "type": "bytes"
        }
      ],
      "name": "execute",
      "outputs": [],
      "stateMutability": "nonpayable",
      "type": "function"
    },
    {
      "inputs": [
        {
          "internalType": "uint192",
          "name": "key",
          "type": "uint192"
        }
      ],
      "name": "getNonce",
      "outputs": [
        {
          "internalType": "uint256",
          "name": "",
          "type": "uint256"
        }
      ],
      "stateMutability": "view",
      "type": "function"
    },
    {
      "inputs": [],
      "name": "getNonce",
      "outputs": [
        {
          "internalType": "uint256",
          "name": "",
          "type": "uint256"
        }
      ],
      "stateMutability": "view",
      "type": "function"
    },
    {
      "inputs": [
        {
          "internalType": "bytes32",
          "name": "hash",
          "type": "bytes32"
        },
        {
          "internalType": "bytes",
          "name": "signature",
          "type": "bytes"
        }
      ],
      "name": "isValidSignature",
      "outputs": [
        {
          "internalType": "bytes4",
          "name": "",
          "type": "bytes4"
        }
      ],
      "stateMutability": "view",
      "type": "function"
    },
    {
      "inputs": [
        {
          "components": [
            {
              "internalType": "address",
              "name": "sender",
              "type": "address"
            },
            {
              "internalType": "uint256",
              "name": "nonce",
              "type": "uint256"
            },
            {
              "internalType": "bytes",
              "name": "initCode",
              "type": "bytes"
            },
            {
              "internalType": "bytes",
              "name": "callData",
              "type": "bytes"
            },
            {
              "internalType": "bytes32",
              "name": "accountGasLimits",
              "type": "bytes32"
            },
            {
              "internalType": "uint256",
              "name": "preVerificationGas",
              "type": "uint256"
            },
            {
              "internalType": "bytes32",
              "name": "gasFees",
              "type": "bytes32"
            },
            {
              "internalType": "bytes",
              "name": "paymasterAndData",
              "type": "bytes"
            },
            {
              "internalType": "bytes",
              "name": "signature",
              "type": "bytes"
            }
          ],
          "internalType": "struct PackedUserOperation",
          "name": "userOp",
          "type": "tuple"
        },
        {
          "internalType": "bytes32",
          "name": "userOpHash",
          "type": "bytes32"
        },
        {
          "internalType": "uint256",
          "name": "missingAccountFunds",
          "type": "uint256"
        }
      ],
      "name": "validateUserOp",
      "outputs": [
        {
          "internalType": "uint256",
          "name": "",
          "type": "uint256"
        }
      ],
      "stateMutability": "nonpayable",
      "type": "function"
    },
    {
      "stateMutability": "payable",
      "type": "receive"
    }
  ],
  "bytecode": "0x608080604052346015576105ea908161001a8239f35b5f80fdfe6080604052600436101561001a575b3615610018575f80fd5b005b5f3560e01c80631626ba7e1461007957806319822f7c146100745780633e1b08121461006f578063b0d691fe1461006a578063b61d27f6146100655763d087d2880361000e576103b4565b6102e7565b6102b9565b610212565b61011b565b346100e95760403660031901126100e95760243560043567ffffffffffffffff82116100e9576100b06100b69236906004016100ed565b91610483565b156100d9576020630b135d3f60e11b5b6040516001600160e01b03199091168152f35b60206001600160e01b03196100c6565b5f80fd5b9181601f840112156100e95782359167ffffffffffffffff83116100e957602083818601950101116100e957565b346100e95760603660031901126100e95760043567ffffffffffffffff81116100e957803603906101206003198301126100e9576024359160443591734337084d9e255ff0702461cf8895ce9e3b5ff10833036101ff5761010481013591602219018212156100e957019160048301359267ffffffffffffffff84116100e9576024019280360384136100e9576101d4936101b592610483565b156101f7575f905b806101d8575b506040519081529081906020820190565b0390f35b5f80808093816040516101ec602082610426565b52335af1505f6101c3565b6001906101bd565b637cf8632b60e01b5f523360045260245ffd5b346100e95760203660031901126100e9576004356001600160c01b038116908190036100e95760405190631aab3f0d60e11b82523060048301526024820152602081604481734337084d9e255ff0702461cf8895ce9e3b5ff1085afa80156102b4576020915f91610287575b50604051908152f35b6102a79150823d84116102ad575b61029f8183610426565b81019061044d565b5f61027e565b503d610295565b61045c565b346100e9575f3660031901126100e9576020604051734337084d9e255ff0702461cf8895ce9e3b5ff1088152f35b346100e95760603660031901126100e9576004356001600160a01b03811681036100e9576024359060443567ffffffffffffffff81116100e95761032f9036906004016100ed565b9190913033141580610396575b6101ff575f938493826040519384928337810185815203925af13d1561038e573d9061036782610467565b916103756040519384610426565b82523d5f602084013e5b1561038657005b602081519101fd5b60609061037f565b50734337084d9e255ff0702461cf8895ce9e3b5ff10833141561033c565b346100e9575f3660031901126100e957604051631aab3f0d60e11b81523060048201525f6024820152602081604481734337084d9e255ff0702461cf8895ce9e3b5ff1085afa80156102b4576020915f916102875750604051908152f35b634e487b7160e01b5f52604160045260245ffd5b90601f8019910116810190811067ffffffffffffffff82111761044857604052565b610412565b908160209103126100e9575190565b6040513d5f823e3d90fd5b67ffffffffffffffff811161044857601f01601f191660200190565b91909161048f82610467565b9161049d6040519384610426565b80835236818501116100e9576020815f926104bf9683870137840101526104f8565b509060018060a01b0316301490816104d5575090565b905060048110156104e4571590565b634e487b7160e01b5f52602160045260245ffd5b8151919060418303610528576105219250602082015190606060408401519301515f1a90610532565b9192909190565b50505f9160029190565b91907f7fffffffffffffffffffffffffffffff5d576e7357a4501ddfe92f46681b20a084116105a9579160209360809260ff5f9560405194855216868401526040830152606082015282805260015afa156102b4575f516001600160a01b0381161561059f57905f905f90565b505f906001905f90565b5050505f916003919056fea2646970667358221220b2fc054c781770054cb736688dbb1a129c9320a8f3d879d8e20f1913e0d11e2164736f6c634300081c0033",
  "linkReferences": {},
  "deployedLinkReferences": {},
  "immutableReferences": {},
  "inputSourceName": "project/test/mocks/SimpleAccount7702Mock.sol",
  "buildInfoId": "solc-0_8_28-13640a50ea8dc81965f3e5ecf9ff500b8eb64cc9"
}