{
  "_format": "hh3-artifact-1",
  "contractName": "OracleMock",
  "sourceName": "test/mocks/OracleMock.sol",
  "abi": [
    {
      "inputs": [
        {
          "internalType": "bytes32",
          "name": "tokenFeedId",
          "type": "bytes32"
        }
      ],
      "name": "getTokenPriceInEth",
      "outputs": [
        {
          "internalType": "uint256",
          "name": "price",
          "type": "uint256"
        }
      ],
      "stateMutability": "view",
      "type": "function"
    },
    {
      "inputs": [
        {
          "internalType": "bytes32",
          "name": "tokenFeedId",
          "type": "bytes32"
        },
        {
          "internalType": "uint256",
          "name": "tokenPriceInEth",
          "type": "uint256"
        }
      ],
      "name": "setTokenPriceInEth",
      "outputs": [],
      "stateMutability": "nonpayable",
      "type": "function"
    }
  ],
  "bytecode": "0x6080806040523460135760b0908160188239f35b5f80fdfe60808060405260043610156011575f80fd5b5f3560e01c908163db01dc4e146057575063feafec9114602f575f80fd5b3460535760403660031901126053576004355f525f60205260243560405f20555f80f35b5f80fd5b3460535760203660031901126053576020906004355f525f825260405f20548152f3fea2646970667358221220ab05d03e519013fce7e10a02a973688ae77b6aafbb99aeae109391f4e2deeeee64736f6c634300081c0033",
  "linkReferences": {},
  "deployedLinkReferences": {},
  "immutableReferences": {},
  "inputSourceName": "project/test/mocks/OracleMock.sol",
  "buildInfoId": "solc-0_8_28-13640a50ea8dc81965f3e5ecf9ff500b8eb64cc9"
}