{"project/contracts/PythOracleAdapter.sol":{"PythOracleAdapter":{"abi":[{"inputs":[{"internalType":"address","name":"_pyth","type":"address"},{"internalType":"bytes32","name":"_ethFeedId","type":"bytes32"}],"stateMutability":"nonpayable","type":"constructor"},{"inputs":[{"internalType":"bytes32","name":"tokenFeedId","type":"bytes32"}],"name":"InvalidPrice","type":"error"},{"inputs":[{"internalType":"bytes32","name":"tokenFeedId","type":"bytes32"}],"name":"InvalidTokenFeedId","type":"error"},{"inputs":[],"name":"ethFeedId","outputs":[{"internalType":"bytes32","name":"","type":"bytes32"}],"stateMutability":"view","type":"function"},{"inputs":[{"internalType":"bytes32","name":"tokenFeedId","type":"bytes32"}],"name":"getTokenPriceInEth","outputs":[{"internalType":"uint256","name":"priceInEth","type":"uint256"}],"stateMutability":"view","type":"function"},{"inputs":[],"name":"pyth","outputs":[{"internalType":"contract IPyth","name":"","type":"address"}],"stateMutability":"view","type":"function"}],"evm":{"bytecode":{"linkReferences":{},"object":"60c03461008a57601f6104cf38819003918201601f19168301916001600160401b0383118484101761008e57808492604094855283398101031261008a5780516001600160a01b038116919082900361008a57602001519060805260a05260405161042c90816100a382396080518181816052015260b6015260a051818181610110015261020f0152f35b5f80fd5b634e487b7160e01b5f52604160045260245ffdfe6080806040526004361015610012575f80fd5b5f3560e01c9081637bcf6cde146101fa57508063db01dc4e146100855763f98d06f01461003d575f80fd5b34610081575f366003190112610081576040517f00000000000000000000000000000000000000000000000000000000000000006001600160a01b03168152602090f35b5f80fd5b346100815760203660031901126100815760043580156101e8576040516396834ad360e01b815260048101829052907f00000000000000000000000000000000000000000000000000000000000000006001600160a01b031690608083602481855afa9182156101bb576024935f936101c6575b50608090604051948580926396834ad360e01b82527f000000000000000000000000000000000000000000000000000000000000000060048301525afa9283156101bb575f9361018a575b505f825160070b138061017d575b1561016b5760206101638484610322565b604051908152f35b63cd97203f60e01b5f5260045260245ffd5b505f835160070b13610152565b6101ad91935060803d6080116101b4575b6101a58183610232565b810190610268565b9183610144565b503d61019b565b6040513d5f823e3d90fd5b60809193506101e190823d84116101b4576101a58183610232565b92906100f9565b6316afa6d360e21b5f5260045260245ffd5b34610081575f366003190112610081576020907f00000000000000000000000000000000000000000000000000000000000000008152f35b90601f8019910116810190811067ffffffffffffffff82111761025457604052565b634e487b7160e01b5f52604160045260245ffd5b9081608091031261008157604051906080820182811067ffffffffffffffff8211176102545760405280518060070b8103610081578252602081015167ffffffffffffffff811681036100815760208301526040810151908160030b82036100815760609160408401520151606082015290565b81156102e6570490565b634e487b7160e01b5f52601260045260245ffd5b63ffffffff16604d811161030e57600a0a90565b634e487b7160e01b5f52601160045260245ffd5b9067ffffffffffffffff8251169060408067ffffffffffffffff83511694015160030b91015160030b900391637fffffff8313637fffffff1984121761030e57670de0b6b3a7640000820291808304670de0b6b3a7640000149015171561030e5761038c916102dc565b8160030b9182155f1461039f5750905090565b5f8313156103cc576103b891925063ffffffff166102fa565b9081810291818304149015171561030e5790565b50637fffffff19821461030e576103ed6103f3925f0363ffffffff166102fa565b906102dc565b9056fea264697066735822122015949759cbc53b41ea4a41b8c94947562c02b1c589a0b33a9cf15c8b64e6090b64736f6c634300081c0033","opcodes":"PUSH1 0xC0 CALLVALUE PUSH2 0x8A JUMPI PUSH1 0x1F PUSH2 0x4CF CODESIZE DUP2 SWAP1 SUB SWAP2 DUP3 ADD PUSH1 0x1F NOT AND DUP4 ADD SWAP2 PUSH1 0x1 PUSH1 0x1 PUSH1 0x40 SHL SUB DUP4 GT DUP5 DUP5 LT OR PUSH2 0x8E JUMPI DUP1 DUP5 SWAP3 PUSH1 0x40 SWAP5 DUP6 MSTORE DUP4 CODECOPY DUP2 ADD SUB SLT PUSH2 0x8A JUMPI DUP1 MLOAD PUSH1 0x1 PUSH1 0x1 PUSH1 0xA0 SHL SUB DUP2 AND SWAP2 SWAP1 DUP3 SWAP1 SUB PUSH2 0x8A JUMPI PUSH1 0x20 ADD MLOAD SWAP1 PUSH1 0x80 MSTORE PUSH1 0xA0 MSTORE PUSH1 0x40 MLOAD PUSH2 0x42C SWAP1 DUP2 PUSH2 0xA3 DUP3 CODECOPY PUSH1 0x80 MLOAD DUP2 DUP2 DUP2 PUSH1 0x52 ADD MSTORE PUSH1 0xB6 ADD MSTORE PUSH1 0xA0 MLOAD DUP2 DUP2 DUP2 PUSH2 0x110 ADD MSTORE PUSH2 0x20F ADD MSTORE RETURN JUMPDEST PUSH0 DUP1 REVERT JUMPDEST PUSH4 0x4E487B71 PUSH1 0xE0 SHL PUSH0 MSTORE PUSH1 0x41 PUSH1 0x4 MSTORE PUSH1 0x24 PUSH0 REVERT INVALID PUSH1 0x80 DUP1 PUSH1 0x40 MSTORE PUSH1 0x4 CALLDATASIZE LT ISZERO PUSH2 0x12 JUMPI PUSH0 DUP1 REVERT JUMPDEST PUSH0 CALLDATALOAD PUSH1 0xE0 SHR SWAP1 DUP2 PUSH4 0x7BCF6CDE EQ PUSH2 0x1FA JUMPI POP DUP1 PUSH4 0xDB01DC4E EQ PUSH2 0x85 JUMPI PUSH4 0xF98D06F0 EQ PUSH2 0x3D JUMPI PUSH0 DUP1 REVERT JUMPDEST CALLVALUE PUSH2 0x81 JUMPI PUSH0 CALLDATASIZE PUSH1 0x3 NOT ADD SLT PUSH2 0x81 JUMPI PUSH1 0x40 MLOAD PUSH32 0x0 PUSH1 0x1 PUSH1 0x1 PUSH1 0xA0 SHL SUB AND DUP2 MSTORE PUSH1 0x20 SWAP1 RETURN JUMPDEST PUSH0 DUP1 REVERT JUMPDEST CALLVALUE PUSH2 0x81 JUMPI PUSH1 0x20 CALLDATASIZE PUSH1 0x3 NOT ADD SLT PUSH2 0x81 JUMPI PUSH1 0x4 CALLDATALOAD DUP1 ISZERO PUSH2 0x1E8 JUMPI PUSH1 0x40 MLOAD PUSH4 0x96834AD3 PUSH1 0xE0 SHL DUP2 MSTORE PUSH1 0x4 DUP2 ADD DUP3 SWAP1 MSTORE SWAP1 PUSH32 0x0 PUSH1 0x1 PUSH1 0x1 PUSH1 0xA0 SHL SUB AND SWAP1 PUSH1 0x80 DUP4 PUSH1 0x24 DUP2 DUP6 GAS STATICCALL SWAP2 DUP3 ISZERO PUSH2 0x1BB JUMPI PUSH1 0x24 SWAP4 PUSH0 SWAP4 PUSH2 0x1C6 JUMPI JUMPDEST POP PUSH1 0x80 SWAP1 PUSH1 0x40 MLOAD SWAP5 DUP6 DUP1 SWAP3 PUSH4 0x96834AD3 PUSH1 0xE0 SHL DUP3 MSTORE PUSH32 0x0 PUSH1 0x4 DUP4 ADD MSTORE GAS STATICCALL SWAP3 DUP4 ISZERO PUSH2 0x1BB JUMPI PUSH0 SWAP4 PUSH2 0x18A JUMPI JUMPDEST POP PUSH0 DUP3 MLOAD PUSH1 0x7 SIGNEXTEND SGT DUP1 PUSH2 0x17D JUMPI JUMPDEST ISZERO PUSH2 0x16B JUMPI PUSH1 0x20 PUSH2 0x163 DUP5 DUP5 PUSH2 0x322 JUMP JUMPDEST PUSH1 0x40 MLOAD SWAP1 DUP2 MSTORE RETURN JUMPDEST PUSH4 0xCD97203F PUSH1 0xE0 SHL PUSH0 MSTORE PUSH1 0x4 MSTORE PUSH1 0x24 PUSH0 REVERT JUMPDEST POP PUSH0 DUP4 MLOAD PUSH1 0x7 SIGNEXTEND SGT PUSH2 0x152 JUMP JUMPDEST PUSH2 0x1AD SWAP2 SWAP4 POP PUSH1 0x80 RETURNDATASIZE PUSH1 0x80 GT PUSH2 0x1B4 JUMPI JUMPDEST PUSH2 0x1A5 DUP2 DUP4 PUSH2 0x232 JUMP JUMPDEST DUP2 ADD SWAP1 PUSH2 0x268 JUMP JUMPDEST SWAP2 DUP4 PUSH2 0x144 JUMP JUMPDEST POP RETURNDATASIZE PUSH2 0x19B JUMP JUMPDEST PUSH1 0x40 MLOAD RETURNDATASIZE PUSH0 DUP3 RETURNDATACOPY RETURNDATASIZE SWAP1 REVERT JUMPDEST PUSH1 0x80 SWAP2 SWAP4 POP PUSH2 0x1E1 SWAP1 DUP3 RETURNDATASIZE DUP5 GT PUSH2 0x1B4 JUMPI PUSH2 0x1A5 DUP2 DUP4 PUSH2 0x232 JUMP JUMPDEST SWAP3 SWAP1 PUSH2 0xF9 JUMP JUMPDEST PUSH4 0x16AFA6D3 PUSH1 0xE2 SHL PUSH0 MSTORE PUSH1 0x4 MSTORE PUSH1 0x24 PUSH0 REVERT JUMPDEST CALLVALUE PUSH2 0x81 JUMPI PUSH0 CALLDATASIZE PUSH1 0x3 NOT ADD SLT PUSH2 0x81 JUMPI PUSH1 0x20 SWAP1 PUSH32 0x0 DUP2 MSTORE RETURN JUMPDEST SWAP1 PUSH1 0x1F DUP1 NOT SWAP2 ADD AND DUP2 ADD SWAP1 DUP2 LT PUSH8 0xFFFFFFFFFFFFFFFF DUP3 GT OR PUSH2 0x254 JUMPI PUSH1 0x40 MSTORE JUMP JUMPDEST PUSH4 0x4E487B71 PUSH1 0xE0 SHL PUSH0 MSTORE PUSH1 0x41 PUSH1 0x4 MSTORE PUSH1 0x24 PUSH0 REVERT JUMPDEST SWAP1 DUP2 PUSH1 0x80 SWAP2 SUB SLT PUSH2 0x81 JUMPI PUSH1 0x40 MLOAD SWAP1 PUSH1 0x80 DUP3 ADD DUP3 DUP2 LT PUSH8 0xFFFFFFFFFFFFFFFF DUP3 GT OR PUSH2 0x254 JUMPI PUSH1 0x40 MSTORE DUP1 MLOAD DUP1 PUSH1 0x7 SIGNEXTEND DUP2 SUB PUSH2 0x81 JUMPI DUP3 MSTORE PUSH1 0x20 DUP2 ADD MLOAD PUSH8 0xFFFFFFFFFFFFFFFF DUP2 AND DUP2 SUB PUSH2 0x81 JUMPI PUSH1 0x20 DUP4 ADD MSTORE PUSH1 0x40 DUP2 ADD MLOAD SWAP1 DUP2 PUSH1 0x3 SIGNEXTEND DUP3 SUB PUSH2 0x81 JUMPI PUSH1 0x60 SWAP2 PUSH1 0x40 DUP5 ADD MSTORE ADD MLOAD PUSH1 0x60 DUP3 ADD MSTORE SWAP1 JUMP JUMPDEST DUP2 ISZERO PUSH2 0x2E6 JUMPI DIV SWAP1 JUMP JUMPDEST PUSH4 0x4E487B71 PUSH1 0xE0 SHL PUSH0 MSTORE PUSH1 0x12 PUSH1 0x4 MSTORE PUSH1 0x24 PUSH0 REVERT JUMPDEST PUSH4 0xFFFFFFFF AND PUSH1 0x4D DUP2 GT PUSH2 0x30E JUMPI PUSH1 0xA EXP SWAP1 JUMP JUMPDEST PUSH4 0x4E487B71 PUSH1 0xE0 SHL PUSH0 MSTORE PUSH1 0x11 PUSH1 0x4 MSTORE PUSH1 0x24 PUSH0 REVERT JUMPDEST SWAP1 PUSH8 0xFFFFFFFFFFFFFFFF DUP3 MLOAD AND SWAP1 PUSH1 0x40 DUP1 PUSH8 0xFFFFFFFFFFFFFFFF DUP4 MLOAD AND SWAP5 ADD MLOAD PUSH1 0x3 SIGNEXTEND SWAP2 ADD MLOAD PUSH1 0x3 SIGNEXTEND SWAP1 SUB SWAP2 PUSH4 0x7FFFFFFF DUP4 SGT PUSH4 0x7FFFFFFF NOT DUP5 SLT OR PUSH2 0x30E JUMPI PUSH8 0xDE0B6B3A7640000 DUP3 MUL SWAP2 DUP1 DUP4 DIV PUSH8 0xDE0B6B3A7640000 EQ SWAP1 ISZERO OR ISZERO PUSH2 0x30E JUMPI PUSH2 0x38C SWAP2 PUSH2 0x2DC JUMP JUMPDEST DUP2 PUSH1 0x3 SIGNEXTEND SWAP2 DUP3 ISZERO PUSH0 EQ PUSH2 0x39F JUMPI POP SWAP1 POP SWAP1 JUMP JUMPDEST PUSH0 DUP4 SGT ISZERO PUSH2 0x3CC JUMPI PUSH2 0x3B8 SWAP2 SWAP3 POP PUSH4 0xFFFFFFFF AND PUSH2 0x2FA JUMP JUMPDEST SWAP1 DUP2 DUP2 MUL SWAP2 DUP2 DUP4 DIV EQ SWAP1 ISZERO OR ISZERO PUSH2 0x30E JUMPI SWAP1 JUMP JUMPDEST POP PUSH4 0x7FFFFFFF NOT DUP3 EQ PUSH2 0x30E JUMPI PUSH2 0x3ED PUSH2 0x3F3 SWAP3 PUSH0 SUB PUSH4 0xFFFFFFFF AND PUSH2 0x2FA JUMP JUMPDEST SWAP1 PUSH2 0x2DC JUMP JUMPDEST SWAP1 JUMP INVALID LOG2 PUSH5 0x6970667358 0x22 SLT KECCAK256 ISZERO SWAP5 SWAP8 MSIZE 0xCB 0xC5 EXTCODESIZE COINBASE 0xEA BLOBBASEFEE COINBASE 0xB8 0xC9 BLOBHASH SELFBALANCE JUMP 0x2C MUL 0xB1 0xC5 DUP10 LOG0 0xB3 GASPRICE SWAP13 CALL TLOAD DUP12 PUSH5 0xE6090B6473 PUSH16 0x6C634300081C00330000000000000000 "},"methodIdentifiers":{"ethFeedId()":"7bcf6cde","getTokenPriceInEth(bytes32)":"db01dc4e","pyth()":"f98d06f0"}}}}}